{
  "_format": "hh-sol-artifact-1",
  "contractName": "RandomWinnerGame",
  "sourceName": "contracts/RandomWinnerGame.sol",
  "abi": [
    {
      "inputs": [
        {
          "internalType": "address",
          "name": "vrfCoordinator",
          "type": "address"
        },
        {
          "internalType": "address",
          "name": "linkToken",
          "type": "address"
        },
        {
          "internalType": "bytes32",
          "name": "vrfKeyHash",
          "type": "bytes32"
        },
        {
          "internalType": "uint256",
          "name": "vrfFee",
          "type": "uint256"
        }
      ],
      "stateMutability": "nonpayable",
      "type": "constructor"
    },
    {
      "anonymous": false,
      "inputs": [
        {
          "indexed": false,
          "internalType": "uint256",
          "name": "gameId",
          "type": "uint256"
        },
        {
          "indexed": false,
          "internalType": "address",
          "name": "winner",
          "type": "address"
        },
        {
          "indexed": false,
          "internalType": "bytes32",
          "name": "requestId",
          "type": "bytes32"
        }
      ],
      "name": "GameEnded",
      "type": "event"
    },
    {
      "anonymous": false,
      "inputs": [
        {
          "indexed": false,
          "internalType": "uint256",
          "name": "gameId",
          "type": "uint256"
        },
        {
          "indexed": false,
          "internalType": "uint8",
          "name": "maxPlayers",
          "type": "uint8"
        },
        {
          "indexed": false,
          "internalType": "uint256",
          "name": "entryFee",
          "type": "uint256"
        }
      ],
      "name": "GameStarted",
      "type": "event"
    },
    {
      "anonymous": false,
      "inputs": [
        {
          "indexed": true,
          "internalType": "address",
          "name": "previousOwner",
          "type": "address"
        },
        {
          "indexed": true,
          "internalType": "address",
          "name": "newOwner",
          "type": "address"
        }
      ],
      "name": "OwnershipTransferred",
      "type": "event"
    },
    {
      "anonymous": false,
      "inputs": [
        {
          "indexed": false,
          "internalType": "uint256",
          "name": "gameId",
          "type": "uint256"
        },
        {
          "indexed": false,
          "internalType": "address",
          "name": "player",
          "type": "address"
        }
      ],
      "name": "PlayerJoined",
      "type": "event"
    },
    {
      "stateMutability": "payable",
      "type": "fallback"
    },
    {
      "inputs": [],
      "name": "fee",
      "outputs": [
        {
          "internalType": "uint256",
          "name": "",
          "type": "uint256"
        }
      ],
      "stateMutability": "view",
      "type": "function"
    },
    {
      "inputs": [],
      "name": "gameId",
      "outputs": [
        {
          "internalType": "uint256",
          "name": "",
          "type": "uint256"
        }
      ],
      "stateMutability": "view",
      "type": "function"
    },
    {
      "inputs": [],
      "name": "gameStarted",
      "outputs": [
        {
          "internalType": "bool",
          "name": "",
          "type": "bool"
        }
      ],
      "stateMutability": "view",
      "type": "function"
    },
    {
      "inputs": [],
      "name": "joinGame",
      "outputs": [],
      "stateMutability": "payable",
      "type": "function"
    },
    {
      "inputs": [],
      "name": "keyHash",
      "outputs": [
        {
          "internalType": "bytes32",
          "name": "",
          "type": "bytes32"
        }
      ],
      "stateMutability": "view",
      "type": "function"
    },
    {
      "inputs": [],
      "name": "owner",
      "outputs": [
        {
          "internalType": "address",
          "name": "",
          "type": "address"
        }
      ],
      "stateMutability": "view",
      "type": "function"
    },
    {
      "inputs": [
        {
          "internalType": "uint256",
          "name": "",
          "type": "uint256"
        }
      ],
      "name": "players",
      "outputs": [
        {
          "internalType": "address",
          "name": "",
          "type": "address"
        }
      ],
      "stateMutability": "view",
      "type": "function"
    },
    {
      "inputs": [
        {
          "internalType": "bytes32",
          "name": "requestId",
          "type": "bytes32"
        },
        {
          "internalType": "uint256",
          "name": "randomness",
          "type": "uint256"
        }
      ],
      "name": "rawFulfillRandomness",
      "outputs": [],
      "stateMutability": "nonpayable",
      "type": "function"
    },
    {
      "inputs": [],
      "name": "renounceOwnership",
      "outputs": [],
      "stateMutability": "nonpayable",
      "type": "function"
    },
    {
      "inputs": [
        {
          "internalType": "uint8",
          "name": "_maxPlayers",
          "type": "uint8"
        },
        {
          "internalType": "uint256",
          "name": "_entryFee",
          "type": "uint256"
        }
      ],
      "name": "startGame",
      "outputs": [],
      "stateMutability": "nonpayable",
      "type": "function"
    },
    {
      "inputs": [
        {
          "internalType": "address",
          "name": "newOwner",
          "type": "address"
        }
      ],
      "name": "transferOwnership",
      "outputs": [],
      "stateMutability": "nonpayable",
      "type": "function"
    },
    {
      "stateMutability": "payable",
      "type": "receive"
    }
  ],
  "bytecode": "0x60c06040523480156200001157600080fd5b5060405162001b2938038062001b298339818101604052810190620000379190620002a4565b83838173ffffffffffffffffffffffffffffffffffffffff1660a08173ffffffffffffffffffffffffffffffffffffffff16815250508073ffffffffffffffffffffffffffffffffffffffff1660808173ffffffffffffffffffffffffffffffffffffffff16815250505050620000c3620000b7620000f660201b60201c565b620000fe60201b60201c565b81600381905550806002819055506000600560016101000a81548160ff0219169083151502179055505050505062000316565b600033905090565b6000600160009054906101000a900473ffffffffffffffffffffffffffffffffffffffff16905081600160006101000a81548173ffffffffffffffffffffffffffffffffffffffff021916908373ffffffffffffffffffffffffffffffffffffffff1602179055508173ffffffffffffffffffffffffffffffffffffffff168173ffffffffffffffffffffffffffffffffffffffff167f8be0079c531659141344cd1fd0a4f28419497f9722a3daafe3b4186f6b6457e060405160405180910390a35050565b600080fd5b600073ffffffffffffffffffffffffffffffffffffffff82169050919050565b6000620001f682620001c9565b9050919050565b6200020881620001e9565b81146200021457600080fd5b50565b6000815190506200022881620001fd565b92915050565b6000819050919050565b62000243816200022e565b81146200024f57600080fd5b50565b600081519050620002638162000238565b92915050565b6000819050919050565b6200027e8162000269565b81146200028a57600080fd5b50565b6000815190506200029e8162000273565b92915050565b60008060008060808587031215620002c157620002c0620001c4565b5b6000620002d18782880162000217565b9450506020620002e48782880162000217565b9350506040620002f78782880162000252565b92505060606200030a878288016200028d565b91505092959194509250565b60805160a0516117df6200034a600039600081816102b20152610ad001526000818161098d0152610a9401526117df6000f3fe6080604052600436106100a05760003560e01c8063d4f77b1c11610064578063d4f77b1c1461016a578063d7c81b5514610174578063ddca3f431461019f578063e849c38e146101ca578063f2fde38b146101f3578063f71d96cb1461021c576100a7565b80635e123ce4146100a957806361728f39146100d4578063715018a6146100ff5780638da5cb5b1461011657806394985ddd14610141576100a7565b366100a757005b005b3480156100b557600080fd5b506100be610259565b6040516100cb9190610cb7565b60405180910390f35b3480156100e057600080fd5b506100e961026c565b6040516100f69190610ceb565b60405180910390f35b34801561010b57600080fd5b50610114610272565b005b34801561012257600080fd5b5061012b610286565b6040516101389190610d47565b60405180910390f35b34801561014d57600080fd5b5061016860048036038101906101639190610dc9565b6102b0565b005b61017261034c565b005b34801561018057600080fd5b50610189610501565b6040516101969190610e18565b60405180910390f35b3480156101ab57600080fd5b506101b4610507565b6040516101c19190610e18565b60405180910390f35b3480156101d657600080fd5b506101f160048036038101906101ec9190610e6c565b61050d565b005b3480156101ff57600080fd5b5061021a60048036038101906102159190610ed8565b61061c565b005b34801561022857600080fd5b50610243600480360381019061023e9190610f05565b6106a0565b6040516102509190610d47565b60405180910390f35b600560019054906101000a900460ff1681565b60035481565b61027a6106df565b610284600061075d565b565b6000600160009054906101000a900473ffffffffffffffffffffffffffffffffffffffff16905090565b7f000000000000000000000000000000000000000000000000000000000000000073ffffffffffffffffffffffffffffffffffffffff163373ffffffffffffffffffffffffffffffffffffffff161461033e576040517f08c379a000000000000000000000000000000000000000000000000000000000815260040161033590610f8f565b60405180910390fd5b6103488282610823565b5050565b600560019054906101000a900460ff1661039b576040517f08c379a000000000000000000000000000000000000000000000000000000000815260040161039290610ffb565b60405180910390fd5b60065434146103df576040517f08c379a00000000000000000000000000000000000000000000000000000000081526004016103d69061108d565b60405180910390fd5b600560009054906101000a900460ff1660ff1660048054905010610438576040517f08c379a000000000000000000000000000000000000000000000000000000000815260040161042f906110f9565b60405180910390fd5b6004339080600181540180825580915050600190039060005260206000200160009091909190916101000a81548173ffffffffffffffffffffffffffffffffffffffff021916908373ffffffffffffffffffffffffffffffffffffffff1602179055507f87969bc7faf902221a147b95ceba76e011c5efb0339a0a8ee7a2bb82d9cfbbd6600754336040516104ce929190611119565b60405180910390a1600560009054906101000a900460ff1660ff1660048054905014156104ff576104fd610986565b505b565b60075481565b60025481565b6105156106df565b600560019054906101000a900460ff1615610565576040517f08c379a000000000000000000000000000000000000000000000000000000000815260040161055c9061118e565b60405180910390fd5b600460006105739190610c5e565b81600560006101000a81548160ff021916908360ff1602179055506001600560016101000a81548160ff021916908315150217905550806006819055506001600760008282546105c391906111dd565b925050819055507f10a7675bf1b19b67834ca5a59866847fd31c62cdfc8e9466039e6b8e088e15ae600754600560009054906101000a900460ff1660065460405161061093929190611242565b60405180910390a15050565b6106246106df565b600073ffffffffffffffffffffffffffffffffffffffff168173ffffffffffffffffffffffffffffffffffffffff161415610694576040517f08c379a000000000000000000000000000000000000000000000000000000000815260040161068b906112eb565b60405180910390fd5b61069d8161075d565b50565b600481815481106106b057600080fd5b906000526020600020016000915054906101000a900473ffffffffffffffffffffffffffffffffffffffff1681565b6106e7610a88565b73ffffffffffffffffffffffffffffffffffffffff16610705610286565b73ffffffffffffffffffffffffffffffffffffffff161461075b576040517f08c379a000000000000000000000000000000000000000000000000000000000815260040161075290611357565b60405180910390fd5b565b6000600160009054906101000a900473ffffffffffffffffffffffffffffffffffffffff16905081600160006101000a81548173ffffffffffffffffffffffffffffffffffffffff021916908373ffffffffffffffffffffffffffffffffffffffff1602179055508173ffffffffffffffffffffffffffffffffffffffff168173ffffffffffffffffffffffffffffffffffffffff167f8be0079c531659141344cd1fd0a4f28419497f9722a3daafe3b4186f6b6457e060405160405180910390a35050565b60006004805490508261083691906113a6565b905060006004828154811061084e5761084d6113d7565b5b9060005260206000200160009054906101000a900473ffffffffffffffffffffffffffffffffffffffff16905060008173ffffffffffffffffffffffffffffffffffffffff16476040516108a190611437565b60006040518083038185875af1925050503d80600081146108de576040519150601f19603f3d011682016040523d82523d6000602084013e6108e3565b606091505b5050905080610927576040517f08c379a000000000000000000000000000000000000000000000000000000000815260040161091e90611498565b60405180910390fd5b7fd2da138ec4b828f6f1dd931eea0488e41e941f7cda657ad8f524ede8cb2c7ce0600754838760405161095c939291906114b8565b60405180910390a16000600560016101000a81548160ff0219169083151502179055505050505050565b60006002547f000000000000000000000000000000000000000000000000000000000000000073ffffffffffffffffffffffffffffffffffffffff166370a08231306040518263ffffffff1660e01b81526004016109e49190610d47565b60206040518083038186803b1580156109fc57600080fd5b505afa158015610a10573d6000803e3d6000fd5b505050506040513d601f19601f82011682018060405250810190610a349190611504565b1015610a75576040517f08c379a0000000000000000000000000000000000000000000000000000000008152600401610a6c9061157d565b60405180910390fd5b610a83600354600254610a90565b905090565b600033905090565b60007f000000000000000000000000000000000000000000000000000000000000000073ffffffffffffffffffffffffffffffffffffffff16634000aea07f000000000000000000000000000000000000000000000000000000000000000084866000604051602001610b0492919061159d565b6040516020818303038152906040526040518463ffffffff1660e01b8152600401610b319392919061165f565b602060405180830381600087803b158015610b4b57600080fd5b505af1158015610b5f573d6000803e3d6000fd5b505050506040513d601f19601f82011682018060405250810190610b8391906116c9565b506000610ba58460003060008089815260200190815260200160002054610bef565b9050600160008086815260200190815260200160002054610bc691906111dd565b60008086815260200190815260200160002081905550610be68482610c2b565b91505092915050565b600084848484604051602001610c0894939291906116f6565b6040516020818303038152906040528051906020012060001c9050949350505050565b60008282604051602001610c4092919061177d565b60405160208183030381529060405280519060200120905092915050565b5080546000825590600052602060002090810190610c7c9190610c7f565b50565b5b80821115610c98576000816000905550600101610c80565b5090565b60008115159050919050565b610cb181610c9c565b82525050565b6000602082019050610ccc6000830184610ca8565b92915050565b6000819050919050565b610ce581610cd2565b82525050565b6000602082019050610d006000830184610cdc565b92915050565b600073ffffffffffffffffffffffffffffffffffffffff82169050919050565b6000610d3182610d06565b9050919050565b610d4181610d26565b82525050565b6000602082019050610d5c6000830184610d38565b92915050565b600080fd5b610d7081610cd2565b8114610d7b57600080fd5b50565b600081359050610d8d81610d67565b92915050565b6000819050919050565b610da681610d93565b8114610db157600080fd5b50565b600081359050610dc381610d9d565b92915050565b60008060408385031215610de057610ddf610d62565b5b6000610dee85828601610d7e565b9250506020610dff85828601610db4565b9150509250929050565b610e1281610d93565b82525050565b6000602082019050610e2d6000830184610e09565b92915050565b600060ff82169050919050565b610e4981610e33565b8114610e5457600080fd5b50565b600081359050610e6681610e40565b92915050565b60008060408385031215610e8357610e82610d62565b5b6000610e9185828601610e57565b9250506020610ea285828601610db4565b9150509250929050565b610eb581610d26565b8114610ec057600080fd5b50565b600081359050610ed281610eac565b92915050565b600060208284031215610eee57610eed610d62565b5b6000610efc84828501610ec3565b91505092915050565b600060208284031215610f1b57610f1a610d62565b5b6000610f2984828501610db4565b91505092915050565b600082825260208201905092915050565b7f4f6e6c7920565246436f6f7264696e61746f722063616e2066756c66696c6c00600082015250565b6000610f79601f83610f32565b9150610f8482610f43565b602082019050919050565b60006020820190508181036000830152610fa881610f6c565b9050919050565b7f47616d6520686173206e6f74206265656e207374617274656420796574000000600082015250565b6000610fe5601d83610f32565b9150610ff082610faf565b602082019050919050565b6000602082019050818103600083015261101481610fd8565b9050919050565b7f56616c75652073656e74206973206e6f7420657175616c20746f20656e74727960008201527f4665650000000000000000000000000000000000000000000000000000000000602082015250565b6000611077602383610f32565b91506110828261101b565b604082019050919050565b600060208201905081810360008301526110a68161106a565b9050919050565b7f47616d652069732066756c6c0000000000000000000000000000000000000000600082015250565b60006110e3600c83610f32565b91506110ee826110ad565b602082019050919050565b60006020820190508181036000830152611112816110d6565b9050919050565b600060408201905061112e6000830185610e09565b61113b6020830184610d38565b9392505050565b7f47616d652069732063757272656e746c792072756e6e696e6700000000000000600082015250565b6000611178601983610f32565b915061118382611142565b602082019050919050565b600060208201905081810360008301526111a78161116b565b9050919050565b7f4e487b7100000000000000000000000000000000000000000000000000000000600052601160045260246000fd5b60006111e882610d93565b91506111f383610d93565b9250827fffffffffffffffffffffffffffffffffffffffffffffffffffffffffffffffff03821115611228576112276111ae565b5b828201905092915050565b61123c81610e33565b82525050565b60006060820190506112576000830186610e09565b6112646020830185611233565b6112716040830184610e09565b949350505050565b7f4f776e61626c653a206e6577206f776e657220697320746865207a65726f206160008201527f6464726573730000000000000000000000000000000000000000000000000000602082015250565b60006112d5602683610f32565b91506112e082611279565b604082019050919050565b60006020820190508181036000830152611304816112c8565b9050919050565b7f4f776e61626c653a2063616c6c6572206973206e6f7420746865206f776e6572600082015250565b6000611341602083610f32565b915061134c8261130b565b602082019050919050565b6000602082019050818103600083015261137081611334565b9050919050565b7f4e487b7100000000000000000000000000000000000000000000000000000000600052601260045260246000fd5b60006113b182610d93565b91506113bc83610d93565b9250826113cc576113cb611377565b5b828206905092915050565b7f4e487b7100000000000000000000000000000000000000000000000000000000600052603260045260246000fd5b600081905092915050565b50565b6000611421600083611406565b915061142c82611411565b600082019050919050565b600061144282611414565b9150819050919050565b7f4661696c656420746f2073656e64204574686572000000000000000000000000600082015250565b6000611482601483610f32565b915061148d8261144c565b602082019050919050565b600060208201905081810360008301526114b181611475565b9050919050565b60006060820190506114cd6000830186610e09565b6114da6020830185610d38565b6114e76040830184610cdc565b949350505050565b6000815190506114fe81610d9d565b92915050565b60006020828403121561151a57611519610d62565b5b6000611528848285016114ef565b91505092915050565b7f4e6f7420656e6f756768204c494e4b0000000000000000000000000000000000600082015250565b6000611567600f83610f32565b915061157282611531565b602082019050919050565b600060208201905081810360008301526115968161155a565b9050919050565b60006040820190506115b26000830185610cdc565b6115bf6020830184610e09565b9392505050565b600081519050919050565b600082825260208201905092915050565b60005b838110156116005780820151818401526020810190506115e5565b8381111561160f576000848401525b50505050565b6000601f19601f8301169050919050565b6000611631826115c6565b61163b81856115d1565b935061164b8185602086016115e2565b61165481611615565b840191505092915050565b60006060820190506116746000830186610d38565b6116816020830185610e09565b81810360408301526116938184611626565b9050949350505050565b6116a681610c9c565b81146116b157600080fd5b50565b6000815190506116c38161169d565b92915050565b6000602082840312156116df576116de610d62565b5b60006116ed848285016116b4565b91505092915050565b600060808201905061170b6000830187610cdc565b6117186020830186610e09565b6117256040830185610d38565b6117326060830184610e09565b95945050505050565b6000819050919050565b61175661175182610cd2565b61173b565b82525050565b6000819050919050565b61177761177282610d93565b61175c565b82525050565b60006117898285611745565b6020820191506117998284611766565b602082019150819050939250505056fea2646970667358221220ca365f65a7e27126dee8e2019cbed4a2796631288b11cd8dbf63e8eb685b388164736f6c63430008090033",
  "linkReferences": {},
  "deployedLinkReferences": {}
}